:020000040000FA
:10000000FC7F0020BD060000AD060000B106000028
:1000100000000000000000000000000000000000E0
:10002000000000000000000000000000B506000015
:100030000000000000000000B906000059080000A0
:1000400010B5064C2378002B07D1054B002B02D0AE
:10005000044800E000BF0123237010BD58000020B9
:1000600000000000181F000008B5084B002B03D04B
:100070000748084900E000BF07480368002B03D089
:10008000064B002B00D0984708BDC046000000007A
:10009000181F00005C000020540000200000000039
:1000A00010B50124C3695B081C42FBD1036802241C
:1000B000A34303600124C3691C42FCD104680123EB
:1000C00023430360012403681C42FCD10124C3695B
:1000D0001C42FCD1C3695B081C42F8D10A4B1A438D
:1000E00002600122C3699B081A42FBD1C0239B0214
:1000F000436081810122C3695B081A42FBD1026817
:1001000002231343036010BD040000400122C369B1
:100110005B081A42FBD103680222934303607047D5
:100120000122037E1A42FCD0018570470122037E22
:100130009B081A42FBD0438BDA0705D4438B9A07FE
:1001400002D4438B5A0702D50122024B1A70008D4C
:10015000C0B2704774000020F0B54F464646C0B4A8
:10016000031C30241A48047000200124184EB146A4
:10017000184FBC46B04601E00A1C391C1D7EAD0874
:100180002C4203D147463D78002DF7D13578002D1C
:1001900019D05D8B2C4207D15D8B6D082C4203D1A9
:1001A0005D8BAD082C4201D065462C704F1C1D8D17
:1001B0000D70013080B2511E89B2002A03D04D4625
:1001C0002A78002AD8D10CBC90469946F0BDC0468A
:1001D0008A00002074000020F8B5041C03689A8B84
:1001E00011072DD508229A8380229A72112080212E
:1001F0004900585440200621FF31585482214900BB
:100200005A54144A5768144E3740C025AD052F4341
:10021000576057693E4035435561104D1560104D8C
:10022000156156680F4D35408026B602354355603E
:100230005568AD0BAD03556058540023237106E09B
:100240000822FF329B5CDA0601D500F057FB2079CB
:10025000F8BDC0468C010020FFFFFF8F8C000020FE
:100260000C010020FF3F00F0016000230371437187
:10027000034B83600A78022313430B707047C04618
:10028000D901000010B5394BD96920220A43DA613F
:10029000374B5822995C0120014399543C22995CC8
:1002A0000F24A14399549C5C062121439954592160
:1002B0005C5C20435854985C0F2101409954985C31
:1002C0006021014399542B4A2B4B5A801A1C5378B6
:1002D0005BB2002BFBDB294B197801220A431A7011
:1002E000191C01228B781A42FCD1254B1B689B03F9
:1002F000DB0E1F2B00D10523204A9901108D214BC5
:1003000003400B4313851E4B1B685B02DB0E1F2B48
:1003100000D11D23194A118D1F2081430B431385E2
:10032000174B1A689201520F072A00D10322134B70
:100330001103188D144A02400A431A851A787F2146
:100340000A401A70197804220A431A700F4858623A
:100350001A890C218A431A811A8901218A431A8138
:100360000021802201F04DFC10BDC0460004004079
:100370000044004106400000000C004000500041D5
:10038000246080003FF8FFFFFF8FFFFF8C010020FB
:10039000F0B5474680B4041C171C1E1C1D1C5B01D5
:1003A000224AD31810335B685B005B0F03330122D2
:1003B0009A40BA4208D873011C4AD318586980225F
:1003C000120602435A610BE0321C531E9A419201FD
:1003D000174BD2189046101C3A1C01F009FC4146FC
:1003E0007301124AD218131C1161B904890C5269A5
:1003F000920B92030A435A6159690E4A0A405A61A4
:1004000008367601A6190223F371727980235B42C4
:100410001343737108356D0101216319DB795B08A2
:100420001942FAD0381C04BC9046F0BD8C01002063
:100430000C010020FF3F00F038B5051C141C1B4BBD
:100440001B78002B13D11A4B1A4A1A645A6C920B60
:1004500092035A64586C184A02405A64A2235B0003
:10046000E85C40220243EA540122104B1A704823F0
:10047000FF33EB5CDA0716D50D4B5B6C9B049B0CD2
:10048000A34203D20A4B5C6CA404A40C081C0949C7
:10049000221C01F0ADFB01224823FF33EA54002265
:1004A000024B1A7000E00024201C38BD75000020AB
:1004B0008C010020CC000020FF3F00F0002906D076
:1004C0000623FF33C15C20220A43C25405E0062301
:1004D000FF33C15C10220A43C25470470B4B5A6968
:1004E000920B92035A6102220823FF33C25406235F
:1004F000FF33C15C802252420A43C2540821FF31BB
:100500000122435C5B081A42FBD070478C0100203B
:1005100080235B421943C9B28172704770B50322D0
:10052000A0235B00C254134B5C6C134A1440C021DF
:1005300089050C435C6440244625FF3544550F4D26
:100540001D64302690256D0046555D6B154029438E
:100550005963802192256D004155094D1D63B025D9
:100560006D0044555C6F22405A67B2235B00C15452
:1005700070BDC0468C010020FFFFFF8FCC00002023
:100580004C010020404B5A681E218A4302210A4335
:100590005A603E4B996908220A439A613C4B3D4A96
:1005A0009A82998A02220A439A82191C0222CB68F3
:1005B0001A42FCD00122384B1A7001211A780A42E3
:1005C00003D05A7852B2002AF8DB0122324B9A60EB
:1005D0001A1C53785BB2002BFBDB304A2E4B5A605F
:1005E0001A1C53785BB2002BFBDB8222D2012A4B10
:1005F0005A801A1C53785BB2002BFBDB244B9A8C7D
:1006000080218A439A84191C1022CB681A42FCD09C
:10061000234A1F4BDA62191C1022CB681A42FCD005
:100620001B4B998C1F4A0A439A84191C1022CB68D1
:100630001A42FCD0164B998C02220A439A841A1C47
:1006400080214020D3681942FCD0D3681842F9D0E9
:100650000F491022CB681A42FCD000220E4B9A6040
:100660001A1C53785BB2002BFBDB0F4A0A4B5A6013
:100670001A1C53785BB2002BFBDB044B00221A726E
:100680005A729A72DA7270470040004100040040CA
:10069000000800400C060000000C004001050100AD
:1006A000B805FF7D040A0000000703000EBEFEE748
:1006B0000DBEFEE705BEFEE702BEFEE710B5184B15
:1006C000184A9A4216D0131C174A9A4212D0144B59
:1006D000144A9A420ED2154B11480330C01A8008B2
:1006E000013080000023111C0F4AD458CC50043331
:1006F0008342FAD10E4B0F4A9A420DD00CD20E4BC8
:100700000B490331C91A890801318900043BC91812
:10071000002204C38B42FCD100F010F8FEE7C04673
:1007200058000020000000201C1F000004000020D2
:10073000A4030020580000205C00002070B5394B55
:100740001B6801332ED0384A384B1A60043AFF2315
:100750001A4227D138233649CB5CD90703D500216B
:10076000344B196012E0334B1968334B994203D173
:100770000022304B1A6015E02F492E4B19602F4B89
:10078000013B002BFCD100212A4B1960254B1B6833
:1007900083F30888FF239A43294B9A60234B1B68F5
:1007A0001B681847FFF7EEFE62B600F0FBFF00F093
:1007B00069F8041C234B244A5A60214A106A00023B
:1007C000000AC02109060143116200229A60072233
:1007D0001A601E4E351C201CA2689047002806D0C7
:1007E0001B4B1B7B9B0902D0012318490B703378EC
:1007F000002B0AD0002000F0F3FB164B802252039E
:100800005A619A6000F064FCFCE72B78002BE2D17F
:1008100001F044F80028DED0012000F0E1FB00F0F8
:1008200057FCFCE700200000042000000C02002020
:1008300000040040FC7F00203581730748E8010078
:1008400000ED00E010E000E0E7030000760000208B
:100850000050004100440041084B1B68002B03D0AE
:10086000064B1A68013A1A60054B1B78002B04D01E
:10087000034B1A78013AD2B21A7070472402002052
:100880008A00002010B5054C054B2360FFF7FAFCE9
:10089000201C2168FFF7E8FC201C10BD100200207E
:1008A0000050004170B5C0B0061C0C1C151C081C83
:1008B00001F0AFF9400002306A4610700323537014
:1008C0002378002B0ED06D08012D0DDD012201349F
:1008D000510068460B5201322378002B05D0AA4202
:1008E000F5DB02E0012200E001225200301C6946E3
:1008F0000023FFF74DFD40B070BDC046F0B54F4638
:100900004646C0B483B0061C046810220823FF3397
:10091000E254C54B1A78C54D2A705A78C4490A70FA
:1009200098788146C34A10801088DF783F020743D9
:1009300017801F79C04A178010885F793F020743EC
:1009400017809F79BD4A17801788DB791B023B43CC
:100950001380402282235B00E2540B782A781B022A
:100960001343B74A934200D122E126DC8022520091
:10097000934200D152E180225200934209DC812B44
:1009800000D1CEE0822B00D1D3E0802B00D000E25A
:10099000BFE081225200934200D16FE181225200D8
:1009A000934200DA66E1C0229200934200D1F6E061
:1009B000A44A934200D1F7E0EBE190221201934266
:1009C00000D195E09022120193420EDCD022D20099
:1009D00093421DD088221201934200D192E0A022BE
:1009E000D200934200D0D4E178E0974A934200D1FC
:1009F000B2E104DC954A934200D10FE1C9E1944A87
:100A0000934200D1ACE1934A934200D1B7E1C0E1F7
:100A1000884B1B881B0A012B0ED13068874B1B8823
:100A20009BB21222122B02D8844B1A8892B28A49A6
:100A30000023FFF7ADFCB0E17E4B1B881B0A022BA5
:100A40000ED130687D4B1B889BB24322432B02D8CA
:100A50007A4B1A8892B281490023FFF799FC9CE1F6
:100A6000744B1B881B0A032B33D1724B1A88FF234C
:100A70001340012B18D0002B02D0022B1CD023E0F6
:100A800001A87749042201F0B3F830686B4B1B884A
:100A90009BB20422042B02D8684B1A8892B201A997
:100AA0000023FFF775FC78E1644B1A883068D2B2F6
:100AB0006C49FFF7F7FE70E1604B1A883068D2B2DC
:100AC0006949FFF7EFFE68E1201C0121FFF7F6FC02
:100AD00063E1201C0121FFF7F1FC5EE1201CFFF720
:100AE000FDFC544B198889B23068FFF711FD54E1C1
:100AF000504B1B883371201CFFF7F0FC201CFFF7C4
:100B00000DFD4AE1311C01C901220023FFF740FC21
:100B100043E1564900230B8030680222FFF738FC7E
:100B20003BE1524900230B8030680222FFF730FC82
:100B300033E100224D4B1A803F4B1988502211405F
:100B40004B4A117019880F220A401A801B889BB2E9
:100B5000032B1FD8464B1B78002B0AD0364B1B8823
:100B600008335B01E418A2799206D20F3F4B1A803A
:100B700009E0314B1B8808335B01E418A279D206E7
:100B8000D20F3A4B1A803068384902220023FFF70F
:100B9000FFFB02E1201C0121FFF790FCFDE0201C7F
:100BA0000121FFF78BFCF8E0201CFFF797FCF4E035
:100BB000214B19887F229143C9B22D4A117019889F
:100BC0000F220A401A801B4B1B889BB2002B20D19E
:100BD000194B1B889BB2002B1BD0174B1B889BB259
:100BE000032B16D8224B1B78002B07D0124B1B88E7
:100BF00008335B01E31820225A7106E00E4B1B8874
:100C000008335B01E31810225A71201CFFF766FCC1
:100C1000C3E0201C0121FFF751FCBEE0201C012194
:100C2000FFF74CFCB9E0C0468C0000207B000020A0
:100C30007C000020800000207E0000207800002042
:100C4000020300000103000021200000010B00004E
:100C5000A121000021220000601C000000000020F3
:100C6000381C00003C1C0000481C000082000020D2
:100C70007A000020201CFFF731FC8EE0494B1988D8
:100C80007F229143C9B2484A117019880F220A4045
:100C90001A80464B1B889BB2002B58D1414B1B88B6
:100CA0009BB2002B53D03F4B1B889BB2032B4ED8DB
:100CB0003D4B1B78002B23D03A4B1B8808335B013C
:100CC000E3189B7998063ED5364B1A8808325201B4
:100CD000A218202111711B8808335B01E318DB790E
:100CE0005A0630D52F4B1A8808325201A2184021DB
:100CF000D1711B8808335B01E31802221A7122E0CC
:100D0000284B1B8808335B01E3189B79DF061AD553
:100D1000244B1A8808325201A218102111711B8825
:100D200008335B01E318DB7998060CD51D4B1A8854
:100D300008325201A2182021D1711B8808335B01AF
:100D4000E31801221A71201CFFF7C8FB25E0201CC4
:100D50000121FFF7B3FB20E0201CFFF7BFFB1CE0E5
:100D60003068134B1B889BB20822082B02D8104B0B
:100D70001A8892B20F490023FFF70AFB0DE00E4BD1
:100D80004A461A70094B1B887371201CFFF7A6FB9B
:100D900003E0201C0121FFF791FB03B00CBC90463F
:100DA0009946F0BD7E0000207A00002080000020DF
:100DB00078000020440000201C02002000B583B011
:100DC0000190054B186801A901220123FFF7E0FA01
:100DD000012003B000BDC0461002002010B582B053
:100DE000054B18686C460734211C0122FFF724FBD1
:100DF000207802B010BDC0461002002008B5074898
:100E0000FFF7EAF9031C0020002B06D0034B1A68F9
:100E10004823FF33D35C0120184008BD1002002096
:100E200010B5031C0C1C044A1068191C221C012359
:100E3000FFF7AEFA201C10BD1002002038B5051CCB
:100E40000C1C0748FFF7C8F90023002806D0044B04
:100E50001868291C221CFFF7EFFA031C181C38BD68
:100E600010020020F8B5051C0F1C0C48FFF7B4F960
:100E70000023002810D0002F0BD03C1C074E3068F8
:100E8000291C221CFFF7D8FA241A2D18002CF6D1A1
:100E900001E03B1C00E03B1C181CF8BD10020020C8
:100EA00008B5C368081C111C984708BD002804D069
:100EB0000023C04601338342FBD1704738B500F0B0
:100EC000C7FC0C4C80231B02A360A36163698025CF
:100ED0006D032B4363610848FFF7E8FFA3691D43D7
:100EE000A561BFF34F8F054A054BDA60BFF34F8F03
:100EF000C046FDE700440041102700000400FA0549
:100F000000ED00E000000000F0B55F4656464D469B
:100F10004446F0B483B0000183463F200022002302
:100F20000024002520218C4601212B4EB24600943E
:100F30000195041C203C03D40F1CA740B84604E0D4
:100F400065462C1A0E1CE640B0460F1C8740B94679
:100F5000141C1D1CA4185D41221C2B1C5E46474618
:100F60003E4202D00A1C22432B1C002B02D10DD181
:100F700052450BD9154D144C12196B414D46009E2C
:100F800035434446019F3C43009501940138D0D23B
:100F9000009C019D114E301CFFF7B8F80C4A0D4B18
:100FA000121BAB41120C1904114389B2301CC4222C
:100FB0009203FFF775F803B03CBC90469946A246F1
:100FC000AB46F0BDC046C046009423FDFFFFFFFFC7
:100FD0000000000001000000FF6BDC02001C00426A
:100FE000012806D1064A074B1A600122064B1A70E7
:100FF00004E0002802D1054A024B1A607047C0463F
:10100000941C00008802002089000020EC1C0000D5
:10101000F0B585B0021C8C46244B1B78002B33D0D6
:10102000042901D1036836E06346022B01D103880D
:1010300031E003786246560004AA90190B38002E5E
:101040002ED10DE03D1C1D40092D02D81543057021
:1010500001E0373505701B0901380134B442F1D382
:1010600001AB30221A7078225A7062460132520067
:101070000A2199549E190D21F1700D490868023218
:10108000191CFFF70DFF0FE0094B1868111C624691
:10109000FFF706FF08E06246560004AA90190B38D5
:1010A00000240F273022CDE705B0F0BD88000020D6
:1010B0008802002072B6EFF30883044A13600368C5
:1010C00083F30888436818477047C0468C020020A5
:1010D000F0B55F4656464D464446F0B48DB004A97F
:1010E000C14A0B1C31CA31C391CA91C3A0CAA0C363
:1010F000BE4A93685B035B0F9B005B58BC490B6067
:10110000926892B2BB490A605343BB490B60BB4B28
:1011100000221A607A22BA4B1A70BA488346BA4C37
:1011200001340194B94C5D462B681B69201C402199
:101130009847B74B1860B74B1C600022B64B1A603B
:101140000028EFD0B34C27683B78FF2B00D1D1E2C9
:10115000232B00D09FE2B14B1B78002B05D0A94B6D
:101160001868AF490222FFF79BFEA54B1B78532B53
:101170003ED1A74B1B68A84A1268934221D9A548C3
:101180000168013101600132A34802609A1AA54B3F
:101190001868824202D2A44B1A6001E0A24B186088
:1011A000964B1868A04D2A6800F022FD2B689A4AD9
:1011B000106819181160974A1568E91811609B4A60
:1011C0001370954B1A68013A1A60924B1A68013AEB
:1011D0001A60964B1B78934A11688B4206D2894A53
:1011E000126886480068C91A92699047C04641E271
:1011F000522B08D1834B1B68804A1068894A1168BA
:101200005B69984736E24F2B05D17C4B1B68854ABA
:1012100012681A702EE2482B05D1784B1B68814A60
:1012200012681A8026E2572B05D1744B1B687D4A41
:1012300012681A601EE26F2B05D1704B18680121ED
:10124000FFF7E6FE16E2682B08D176486B4B1B6869
:101250001B8803600221FFF7DBFE0BE2772B08D12E
:10126000664B1B681B686F4803600421FFF7D0FEC4
:1012700000E2472B13D16B4B1868FFF71BFF6C4B39
:101280001B6883F3088862B66A4B1B78002B00D179
:10129000F0E15C4B1B681B6806209847EAE1542B81
:1012A00009D101225D4B1A70564B18685C49022225
:1012B000FFF7F6FDDEE14E2B0DD1584B1B78002BCE
:1012C00005D1504B186856490222FFF7E9FD00226C
:1012D000524B1A70CEE1562B58D14A4D28685649C8
:1012E0000122FFF7DDFD286854490322FFF7D8FDEE
:1012F000534E2868311C0122FFF7D2FD286851495E
:101300000D22FFF7CDFD2868311C0122FFF7C8FD33
:101310000022414B1A603F4B019F1F603A4D2B78D2
:10132000002B00D1F4E13C493A4A0B6801330B60D1
:101330001368581C10601B78002BF6D1314E364DC7
:10134000306831492A68FFF7ABFD30683C4901221B
:10135000FFF7A6FD00232B603B4A2E4B1A60E8E105
:101360000B6801330B601368581C10601B78002B4E
:10137000F6D1244D284B1A6828683449FFF790FDB0
:10138000286827490222FFF78BFD73E1582B1FD1F4
:10139000244B1868184B1B68984212D2134A2C4FE2
:1013A000BC460121124E144D4308D361634613809D
:1013B000137D1942FCD03768BB00C0182B689842D7
:1013C000F2D3104B186823490322FFF769FD51E15E
:1013D000592B00D08DE0134B1E68002E3ED1074BD9
:1013E0001A681D4B1A607DE0741C0000004000412B
:1013F0004002002038020020340200208402002035
:101400003002002088020020C01C0000440200209E
:10141000280200202C0200203C020020880000202E
:10142000B41C000090020020940200202002002042
:101430008C02002089000020B81C0000B01C0000B5
:10144000BC1C0000081D0000CD1C0000CC1C0000CE
:1014500002A5FFFFD81C000084000020B608B64B90
:101460001D68B64B1F68B64B5A6880218A435A6084
:10147000002E37D0191C0120B24A9246002399460B
:101480009046B14A0A800B7D1842FCD053461B6837
:10149000032B16D9002E16D04A464B460097B44669
:1014A0002E1CB758009DAF50013347463F68BD081A
:1014B000AB420AD204326345F3D1009F351C664625
:1014C00006E04B4604E04B4602E0009F351C6646B2
:1014D0009E4A0A800A7D1042FCD09A00BF18AD18BF
:1014E000F61ACED19A4B18689A490322FFF7D8FC16
:1014F000C0E05A2B37D1914B1F68974B1B68002BCC
:101500000CD03D1CFF180026311C287800F0EAF9A9
:10151000011C0135BD42F8D1061C00E000268C4BB1
:1015200018688E490122FFF7BBFC311C6B460F3354
:101530006E4607360F252A1C0A400909101C303058
:10154000092A00DD07301870013BB342F3D1804D0A
:10155000286802A90822FFF7A3FC28688049032213
:10156000FFF79EFC86E04C2B1CD17E4DAB6980269C
:1015700076033343AB61A123DB03AB607A4F381CA6
:10158000FFF794FC6A6984235B0313436B61381C87
:10159000FFF78CFCAB691E43AE61E1204002FFF710
:1015A000B3FC67E0402B01D04D2B63D16F4B1B7810
:1015B000002B00D0B6E56E4A6E4B1A60E1277F0221
:1015C000B846634E6C4D6D4C24E06D486A4940222C
:1015D000FEF7C2FD011C694B18601BD05C4B1B68F9
:1015E000654FDB68381C9847614A624B1A603B784C
:1015F000C02B0FD1604B9B780F2B03D14046FFF7D8
:1016000083FC07E05F4A1278402A03D1122B01D1F4
:10161000FFF754FC00F02EF90028D6D133681B697F
:10162000281C40219847011C206019D0524F381CBB
:1016300000F042F94E4A4F4B1A603B78C02B0FD155
:101640004D4B9B780F2B0BD14B4B997A0902DA7AD1
:1016500012040A43597A0A431B7B1B061A4390461D
:10166000484B1B78402BD5D1424B1B68002BD1D166
:10167000FFF724FC7A22434B1A700022364B1A6083
:10168000414B1B78002B35D0314B18683F49012264
:10169000FFF706FC2EE01A1C303A092A06D82E4A1B
:1016A000303B156829010B43136023E01A1C413AB3
:1016B000052A06D8284A373B176839010B431360BF
:1016C00018E01A1C613A052A06D8234A573B1068CD
:1016D00001010B4313600DE02C2B06D11E4B174A62
:1016E0001968116000221A6004E0264A1370002273
:1016F000194B1A60264A136801331360254A116892
:10170000013111601D4A1268934200D21BE509E5C0
:101710000F4E1F4D306820492A68FFF7C1FB306823
:101720001E490122FFF7BCFB00232B601C4A194B0A
:101730001A601749174A13E684000020840200202B
:10174000004000414002002044A5FFFF04A5FFFF28
:1017500088020020DC1C000090020020E01C000039
:10176000E41C000000440041102700008900002014
:1017700080FC0A00240200204402002028020020ED
:10178000001C00423002002088000020E81C0000FD
:101790003C0200202C020020C01C0000BC1C0000E9
:1017A000CD1C000010B51E4BD622995C01200143D0
:1017B0009954BB22995C0F24A14399549C5C03214A
:1017C00021439954D7215C5C20435854985C0F21E5
:1017D00001409954985C302101439954114B196A86
:1017E00080220A431A62104A104B5A801A1C5378FE
:1017F0005BB2002BFBDB0E480E49C4229203FEF7BE
:101800004FFC00230C4A13700C4A13700C4A1370DF
:101810000C4A13700C4A13700C4A137010BDC0466A
:10182000004400410004004019400000000C00404A
:10183000001C00425BB1000098020020220300203F
:10184000990200209C020020230300202003002096
:1018500008B50248FEF75AFC08BDC046001C00420D
:1018600008B5C1B20248FEF75BFC012008BDC046C6
:10187000001C0042024B187E4007C00F7047C04654
:10188000001C004208B5FFF7F5FF0028FBD0024816
:10189000FEF74CFC08BDC046001C004208B5FFF72F
:1018A000E9FF0023002805D0FFF7ECFF031C233BD2
:1018B0005A425341181C08BD70B5041C0E1E06D0B8
:1018C00045182078FFF7CCFF0134AC42F9D1301C29
:1018D00070BDC04610B5041CFFF7D4FF2070012076
:1018E00010BDC0460B0A584040000902024BC05AC6
:1018F000484080B27047C046181D0000F0B55F46F2
:1019000056464D46E0B4061C8946002928D00024DE
:10191000002718498A46184A9346FFF7B3FFC5B215
:1019200051460B78002B1DD1281C391CFFF7DAFF1C
:10193000071C5A461388002B03D1104B1B78002B31
:1019400009D0731C35701E1C4946802903D10A49F1
:101950000A88013A0A800134A4B24C45DDD103E083
:10196000002002E0012000E0381C1CBC91469A4691
:10197000A346F0BD200300209A020020210300208E
:10198000F0B55F4656464D464446F0B483B00190EC
:101990008B4600224A4B1A70002903D10122494B81
:1019A0001A700CE0484B19800022464B1A705A46B8
:1019B000520604D05B4680337F2293439B46404DC2
:1019C0002C1C0026FFF75EFF2B78002B0BD0267017
:1019D000FFF758FFC0B22378002B05D00022384B08
:1019E0001A70002563E0C0B2432823D071285DD06F
:1019F0001528E7D11EE00022314B1A7057E0FF2373
:101A00001840062809D1009B0133DBB200938023E4
:101A10005B429B440199803101915A46002A10D1C2
:101A20000420FFF71DFFFFF72DFF0022254B1A7042
:101A300001253CE001230093234988468946214B38
:101A40009A460120FFF70CFF0098FFF709FF009965
:101A5000C843C0B2FFF704FF019E8025002742461D
:101A60001388002B04D151460A780024002A04D0A0
:101A70003478013B4A4613800136201CFFF7F0FE04
:101A8000201C391CFFF72EFF071C013D002DE6D15D
:101A9000000AC0B2FFF7E4FEF8B2FFF7E1FEFFF77D
:101AA000F1FE074B1B78002BA9D0A4E70025281CCA
:101AB00003B03CBC90469946A246AB46F0BDC0463A
:101AC00020030020210300209A020020F0B5574691
:101AD0004E46C0B483B0061C0022414B1A70002948
:101AE00003D101223F4B1A7004E03F4B19800022C2
:101AF0003C4B1A7064253D4F4320FFF7B1FE3C1C60
:101B000000E0013CFFF7B6FE002802D1002CF8D11E
:101B100001E0002C03D1013D002DEDD159E001245D
:101B20002F4D2F1CFFF7AEFE2A78002A04D000228A
:101B30002B4B1A7000254CE0FF230340012B02D0F1
:101B4000042B39D03BE001A80221FFF7D7FE301C5F
:101B50008021FFF7D3FE81463B78002B34D1FFF77D
:101B600091FE000280B28246FFF78CFE504480B2A4
:101B70001B4A1378012B27D0814509D101AB1B7873
:101B8000A34205D1E34301AA5278DBB29A4203D0C3
:101B90001820FFF765FE17E00620FFF761FE104BE7
:101BA0001B78002B04D000220D4B1A70002510E08A
:101BB000631CDCB28036B5E70620FFF751FE002239
:101BC000084B1A70012504E0054B1B78002BF6D05A
:101BD000E9E7281C03B00CBC91469A46F0BDC0460C
:101BE00020030020210300209A02002000350C0071
:101BF00010B50023934203D0CC5CC4540133F9E701
:101C000010BD031C8218934202D019700133FAE709
:101C100070470023C25C0133002AFBD1581E704775
:101C2000F8B5C046F8BC08BC9E467047F8B5C0463B
:101C3000F8BC08BC9E467047040309044D657465F2
:101C400063612053410000004272696B69204D427C
:101C5000432D574220426F6F746C6F616465720050
:101C600012010002020000401231020000020102D3
:101C7000000100000800000010000000200000002B
:101C80004000000080000000000100000002000091
:101C9000000400006118000085180000751800009D
:101CA000B9180000D518000081190000CD1A0000F5
:101CB000322E31000A0D00007600000020000000E6
:101CC0004A756E20323120323031390030383A35A1
:101CD000353A343100000000580A0D00590A0D0051
:101CE0005A000000230A0D003E000000BD0D000058
:101CF000DD0D0000FD0D0000210E00003D0E000076
:101D0000210E0000650E00005B41726475696E6F04
:101D10003A58595A5D0000000000211042206330FB
:101D20008440A550C660E770088129914AA16BB133
:101D30008CC1ADD1CEE1EFF13112100273325222DB
:101D4000B5529442F772D662399318837BB35AA383
:101D5000BDD39CC3FFF3DEE36224433420040114AB
:101D6000E664C774A44485546AA54BB528850995D3
:101D7000EEE5CFF5ACC58DD553367226111630067B
:101D8000D776F6669556B4465BB77AA71997388723
:101D9000DFF7FEE79DD7BCC7C448E5588668A7783B
:101DA0004008611802282338CCC9EDD98EE9AFF973
:101DB000488969990AA92BB9F55AD44AB77A966A1B
:101DC000711A500A333A122AFDDBDCCBBFFB9EEBC3
:101DD000799B588B3BBB1AABA66C877CE44CC55CEB
:101DE000222C033C600C411CAEED8FFDECCDCDDD13
:101DF0002AAD0BBD688D499D977EB66ED55EF44EBB
:101E0000133E322E511E700E9FFFBEEFDDDFFCCF62
:101E10001BBF3AAF599F788F8891A981CAB1EBA1B6
:101E20000CD12DC14EF16FE18010A100C230E32032
:101E30000450254046706760B9839893FBA3DAB3DA
:101E40003DC31CD37FE35EF3B1029012F322D23282
:101E50003542145277625672EAB5CBA5A8958985AA
:101E60006EF54FE52CD50DC5E234C324A0148104D2
:101E70006674476424540544DBA7FAB79987B8977A
:101E80005FE77EF71DC73CD7D326F2369106B01622
:101E900057667676154634564CD96DC90EF92FE93A
:101EA000C899E9898AB9ABA9445865480678276872
:101EB000C018E1088238A3287DCB5CDB3FEB1EFB1A
:101EC000F98BD89BBBAB9ABB754A545A376A167AC2
:101ED000F10AD01AB32A923A2EFD0FED6CDD4DCDEA
:101EE000AABD8BADE89DC98D267C076C645C454C12
:101EF000A23C832CE01CC10C1FEF3EFF5DCF7CDFBA
:101F00009BAFBABFD98FF89F176E367E554E745E61
:101F1000932EB23ED10EF01E0000000009024300D5
:101F200002010080320904000001020200000524C1
:101F3000001001042402000524060001052401000C
:101F400001070583030800FF09040100020A0000DD
:101F50000007058102400000070502024000000062
:101F600000C20100000008006900000041000000FC
:041F7000000000006D
:1020000000800020A1FE000089FE000089FE000083
:1020100000000000000000000000000000000000C0
:1020200000000000000000000000000089FE000029
:10203000000000000000000089FE0000F5FE000026
:1020400089FE000089FE000089FE000089FE000074
:10205000A90F010089FE000089FE00008DFE00002E
:1020600089FE000041C5000089FE000089FE0000D5
:1020700089FE000079C5000069C5000089FE0000E6
:1020800089FE000089FE000089FE000089FE000034
:10209000CDBD000089FE000089FE000089FE000021
:1020A00089FE000089FE000089FE000089FE000014
:1020B0000000000010B5064C2378002B07D1054B1B
:1020C000002B02D0044800E000BF0123237010BDA4
:1020D000200300200000000070A80100044B10B590
:1020E000002B03D00349044800E000BF10BDC046E8
:1020F000000000002403002070A8010070B5050056
:102100000E0001242B6828001B689847A04202DBC0
:10211000B44203D12C831823E85E70BD640024B25E
:10212000F0E78020704700008382012310B55B42F6
:10213000084CC382023308340383FA23046000246A
:102140009B008460C4600182428244830477C3831D
:10215000038410BD3C8201000023826A9A4209DD9B
:10216000016B03338A4205DD416AC26A023B914238
:1021700000DD01331800704770B504000D00FFF753
:10218000EBFF00280DD0022804D8A36AEB18002D1D
:1021900001DBA36270BD226B9A4200DA1A00A262D0
:1021A000F8E72900200000F001F8F3E7F7B5866AA8
:1021B0000400002E02D0FFF7DFFFF7BDCB43DB0F9B
:1021C0000387CB17CD185D401A23C15E1023C75E6D
:1021D0001822835E86600193037F856246624660B3
:1021E000012B37D1794308003C210FF00BFA404313
:1021F0001E23E65E019B710058430FF003FA202274
:10220000A35E0700E0621900704300930FF0FAF933
:102210003F182063BD4208DA009B0098F11868431C
:102220000FF0F0F92D1AE06225630198704310F069
:102230002DFB011C8020C0050FF024FE0AF0E2FCFB
:1022400012F04CF900220A4B11F0D0FA12F0A4F867
:102250006063B2E707480FF0D5F939000FF0D2F903
:1022600001990FF0CFF9E66260632663A5E7C046E7
:1022700040A1244100879303F7B5856A0400002D2F
:102280000DDD436A013D5E1C037F85624662012BC2
:1022900005D1FFF761FF012802D0032818D0F7BD50
:1022A000656B6368B70001376800C0183900019397
:1022B0000FF0A8F9E36A281A606300219E4205DA4C
:1022C0003900019B4000C0180FF082FA6160E6E718
:1022D000666BAD0067686D42013570002900C0195A
:1022E0000FF090F9301A60634000C0192900EBE745
:1022F000836A70B50400002B3EDDC568002D0ED04A
:102300008668002E02D10DF009FE0600322D01D99B
:102310000DF05AFE0DF002FE801B8542FAD83823DC
:10232000E15E1223E05E0EF051FC01211423E05E19
:102330000EF04CFC0DF0F2FD05002000666BFFF77F
:102340009BFF0DF0EBFD451B07D10DF0E7FD0500F0
:102350000DF0E4FD8542FBD001251423E05E002151
:102360000EF034FC0DF0DAFD0123A060AE4200D97E
:10237000731BE360E06870BD00238360F9E710B56C
:102380000400FFF713FF2000FFF7B2FF0028FAD187
:1023900010BD10B504001023C05E41431823E05E59
:1023A0004843B42149000FF02DF901002000FFF748
:1023B000E6FF10BD10B51623C05E431C02D00021FD
:1023C0000EF004FC10BD70B504000E001223C05EB8
:1023D000022115000EF098FB1223E05E01210EF0A1
:1023E000F5FB1423E05E02210EF08EFB1423E05E69
:1023F00000210EF0EBFB1623E05E431C07D0022108
:102400000EF082FB1623E05E01210EF0DFFB236855
:10241000290066835B68200098472000FFF7CAFF09
:1024200070BD0000F7B50778040001911500002F7A
:1024300020D14178406809F03FFF606829000368B7
:102440003E001B689847606809F0E1FF451EA841FF
:102450006178C5B20122606809F077FF606803689F
:102460001B69984700281ED0606803685B6998471D
:10247000C6B2F3E7012F1AD1807800210EF0A6FB37
:1024800080210C4E294330000DF046FE0021300023
:102490000DF042FE39000600A0780EF097FB0025F3
:1024A000FF2E00D10535019B28001E70FEBD0025C2
:1024B0002E00F8E7B026002073B505780400002D43
:1024C00024D1406809F0D8FE0221607A0EF0D4FBD6
:1024D000207A02210EF0D0FB6B46991D00230B7071
:1024E000144B0A78013B0132D2B29BB20A70002B26
:1024F000F7D16B46DD1D29000F222000FFF792FF68
:1025000028786A38431E9841C0B276BD012DE3D1C8
:10251000094E30000DF0D0FD30000C210DF0F4FD1F
:10252000A07802210EF0F0FAA07829000EF04EFB00
:10253000D2E7C04610270000B0260020F7B51E00E5
:10254000037804000D001700002B26D14178406865
:1025500009F0B2FE60683900036801271B689847DC
:10256000606809F054FF00280CD13200617860687F
:1025700009F0EBFEAE19606803681B6998470028F4
:1025800002D100273800FEBDB542FAD0606803686A
:102590005B69984728700135EDE7012BF1D1807810
:1025A00000210EF013FB80213943114F38000DF04C
:1025B000B3FDAB19019300230093019BAB420CD0F8
:1025C000002138000DF0A8FDFF2803D1009B013346
:1025D000DBB2009328700135EFE7009B0027B34280
:1025E00000D10537A07801210EF0F0FACAE7C04605
:1025F000B026002037B50C0001AD29000223FFF7FB
:102600009DFF6A782B781202134323803EBD0000A1
:10261000F7B5057804000F000192002D15D141781F
:10262000406809F049FE6068390003681B689847F4
:102630006068019903681B689847606809F0E7FEC5
:10264000431E9841C6B23000FEBD0026012DFAD1CE
:10265000310080780EF0BAFA390006480DF05CFDC2
:10266000019904480DF058FDA07829000EF0AEFA4B
:10267000E9E7C046B0260020012383720377084BA8
:10268000084AC3830A2303840023C260064A026106
:10269000064A4261064A82610330C3777047C046EA
:1026A000B80B00007D00410301010101020041035C
:1026B0006400010170B5040004A8007805AD2D7810
:1026C0002070002808D1657061602372627220005A
:1026D000FFF7D2FF200070BD0128F8D1A570F6E702
:1026E00070B50400FFF7E8FEA37C05000022012B73
:1026F00037D1E38A424AA18A9A429241524204293E
:102700000FD0082910D0022910D1D02149008B42C6
:102710003CD013D81A2B35D00AD80D2B1FD040230C
:102720001EE008210A43F0E70C21FBE70421F9E74A
:10273000342B29D0D02BF2D1502311E031498B42D8
:1027400026D004D830498B42E9D1702308E02F49C4
:102750008B421FD02E498B42E1D1A02300E01023F1
:102760001A4310212000FFF753FFA37A0022012B08
:1027700027D1A389F52B18D00ED802327D2B14D087
:102780000C2212E02023EBE73023E9E76023E7E7A0
:102790008023E5E79023E3E7FA21042249008B42F6
:1027A00003D0491892188B42EAD1E389D02B20D06C
:1027B0000DD81A2B17D0342B17D00D2B17D110236F
:1027C0001A4311212000FFF723FF280070BD0E4996
:1027D0008B4210D00B498B420FD0D02149008B4245
:1027E00005D16023ECE72023EAE73023E8E7402324
:1027F000E6E75023E4E77023E2E78023E0E7C04602
:102800007B0600007C06000041030000020D000072
:10281000041A000013B56B469C1D002328222100DA
:102820002380FFF7E7FE0023E05E16BD13B56B467D
:102830009C1D00232A2221002380FFF7DBFE0023BA
:10284000E05E16BD13B56B469C1D00232C222100B3
:102850002380FFF7CFFE0023E05E16BD70B5808AAF
:102860000D0011F0CFFD094A094B10F0BFFF11F028
:1028700087FE041C280010F009F8011C201C0FF032
:10288000D9FC04490FF0FEFA70BDC0465839B4C8EF
:1028900076BE9F3F00007A4410B50400FFF7BAFFF0
:1028A00001002000FFF7DAFF10BD10B50400FFF7AC
:1028B000BDFF01002000FFF7D1FF10BD10B50400DF
:1028C000FFF7C0FF01002000FFF7C8FF10BD13B5E0
:1028D0006B469C1D20222100FFF78CFE0023E05E4A
:1028E00016BD000010B5FFF7F2FF0FF0CFFFEE218D
:1028F00089050FF09FFC02490FF02AF910BDC04670
:102900000000C84113B56B469C1D22222100FFF731
:1029100071FE0023E05E16BD13B56B469C1D24229C
:102920002100FFF767FE0023E05E16BD13B56B467E
:102930009C1D26222100FFF75DFE0023E05E16BDF0
:10294000F8B580890D000224F52803D07D210EF012
:10295000CFFDC4B228000FF099FF11F0BFFD002297
:102960000A4B10F043FF060020000F0011F04AFD53
:1029700002000B003000390010F038FF0022044B39
:1029800010F02AFB11F0FCFDF8BDC046008011409C
:1029900000408F4010B50400FFF7B4FF0100200095
:1029A000FFF7CEFF10BD10B50400FFF7B5FF010023
:1029B0002000FFF7C5FF10BD10B50400FFF7B6FFFC
:1029C00001002000FFF7BCFF10BD000037B5040078
:1029D00012231122C821FFF7A7FB20000C230B2292
:1029E000C8213C30FFF7A0FB25002000B4350F23A1
:1029F0000E22C8217830FFF797FB280018231722F2
:102A00000A4909F009FCBA239B00E0186B230193E3
:102A100000232900009317221833FFF74BFEC3232E
:102A2000D7229B002000E2543EBDC046C0200020BB
:102A300070B5FA260A25A0B0760030000DF09EFA97
:102A40000B4C0C4920000BF0B8FB2A006921200038
:102A50000BF015FC290080236A4620000BF093FF41
:102A60000549684612F099FC0028E6D020B070BDF8
:102A70007C1E00204C8201005782010080B50E4F61
:102A80000521BD441D200EF03FF8A023013BFDD1E0
:102A90001D200EF0D1F8002805D16846FFF796FFFB
:102AA000684600F093FE01211D200EF02DF8C4238E
:102AB0009B009D4480BDC046F0FCFFFF10B5FFF7B2
:102AC000DDFF07F0A3F809480BF080FBFFF7B0FF2C
:102AD00096211322890106480CF019F8054C2000B4
:102AE00000F050FB200000F031FC10BD7C1E0020E7
:102AF000D02000204403002010B507F073FB10BD68
:102B0000074B00220360FE239B0543600023836084
:102B1000C3600361EC239B054361431DDA77704773
:102B2000CDCCCC3DFC2170B58905041C0FF082FB97
:102B3000114B64101C1B051C011C201C0FF07AFBA0
:102B4000211C0FF077FB011CFF2080050FF0A4FC77
:102B5000211C0FF06FFB291C041C0FF06BFB211CC8
:102B60000FF068FB011CFF2080050FF095FC211C75
:102B70000FF060FB70BDC046DF59375FF0B599B00C
:102B80000390081C4F49151C1E1C0FF053FB4D49A8
:102B9000041C281C0FF04EFB4A49051C301C0FF08A
:102BA00049FB8022039B12069B68061C0193039B32
:102BB000211CDB680293039B1B690493019B9818FB
:102BC0000FF038FB291C071C02980FF033FB011C87
:102BD000381C0FF061FC311C071C04980FF02AFB15
:102BE000011C381C0FF058FCFC2189050FF022FB5A
:102BF000039B0A905B68211C181C05930FF01AFBBD
:102C0000311C071C02980FF015FB011C381C0EF03C
:102C10009FFF291C071C04980FF00CFB011C381C9B
:102C20000FF03AFCFC2189050FF004FB291C0B90E6
:102C300005980FF0FFFA311C071C01980FF0FAFA03
:102C4000011C381C0FF028FC211C071C04980FF0F5
:102C5000F1FA011C381C0EF07BFFFC2189050FF0F6
:102C6000E9FA311C0C9005980FF0E4FA291C061CB7
:102C700001980FF0DFFA011C301C0EF069FF211CD7
:102C8000051C02980FF0D6FA011C281C0FF004FC5A
:102C9000FC2189050FF0CEFA00210D901E980EF050
:102CA000E7FD002810D000211F980EF0E1FD00285C
:102CB0000AD0002120980EF0DBFD002800D08DE125
:102CC00002E0C04639FA8E3C1E99081C0FF0B2FA99
:102CD0001F99041C081C0FF0ADFA011C201C0EF0FB
:102CE00037FF2099041C081C0FF0A4FA011C201CBB
:102CF0000EF02EFFFFF716FF041C011C1E980FF0AC
:102D000099FA211C06901F980FF094FA211C079045
:102D100020980FF08FFA05991190081C0EF018FFFB
:102D200001991290081C0EF013FF02991390081CD1
:102D30000EF00EFF04991490081C0EF009FF81217B
:102D40001590C90505980FF075FA8121041CC90575
:102D500001980FF06FFA8121071CC90502980FF046
:102D600069FA82210E90C90501980FF063FA822159
:102D7000051CC90502980FF05DFA01991690081C10
:102D80000FF058FA02990890081C0FF053FA0499B2
:102D90000990081C0FF04EFA09991790201C0FF0AB
:102DA00049FA1499061C06980FF044FA011C301CCD
:102DB0000EF0CEFE0899061C201C0FF03BFA011CF9
:102DC000301C0EF0C5FE1399041C07980FF032FA60
:102DD000011C201C0FF060FB05990F90081C0FF0E0
:102DE00029FA8121C9050FF025FA1799041C381C0E
:102DF0000FF020FA1599061C06980FF01BFA011C1B
:102E0000301C0FF049FB211C061C01980FF012FA30
:102E1000011C301C0EF09CFE1299061C07980FF046
:102E200009FA011C301C0FF037FB391C0FF034FB82
:102E30000899061C281C0FF0FDF9011C301C0EF02F
:102E400087FE0999061C281C0FF0F4F9011C301CA0
:102E50000EF07EFE391C051C11980FF0EBF9011CD9
:102E6000281C0EF075FE211C109002980FF0E2F95C
:102E70001299041C06980FF0DDF9011C201C0EF0BD
:102E800067FE1799041C0E980FF0D4F9011C201C42
:102E90000EF05EFE1599041C07980FF0CBF9011C8B
:102EA000201C0FF0F9FA0E990FF0F6FA0899041C9D
:102EB00016980FF0BFF9011C201C0EF049FE09996D
:102EC000041C16980FF0B6F9011C201C0EF040FEF1
:102ED0000E99041C11980FF0ADF9011C201C0EF086
:102EE00037FE8121071CC90508980FF0A3F9049942
:102EF0000FF0A0F91399041C06980FF09BF9011C20
:102F0000201C0FF0C9FA8121041CC90509980FF093
:102F100091F904990FF08EF9011C201C0EF018FE97
:102F20001499041C07980FF085F9011C201C0FF060
:102F3000B3FA0F99061C081C0FF07CF91099041CB9
:102F4000081C0FF077F9011C201C0EF001FE391C43
:102F5000041C381C0FF06EF9011C201C0EF0F8FD4B
:102F6000311C041C301C0FF065F9011C201C0EF0F4
:102F7000EFFDFFF7D7FD039B051C1C68011C0F9894
:102F80000FF058F9211C0FF055F9011C0A980FF0A9
:102F900083FA291C0A9010980FF04CF9211C0FF0AD
:102FA00049F9011C0B980FF077FA291C0B90381C7B
:102FB0000FF040F9211C0FF03DF9011C0C980FF0A7
:102FC0006BFA291C0C90301C0FF034F9211C0FF007
:102FD00031F9011C0D980FF05FFA0D90039B0A99CF
:102FE0005C69201C0FF026F905990EF0B1FD0B99D4
:102FF0000590201C0FF01EF901990EF0A9FD0C9907
:10300000071C201C0FF016F902990EF0A1FD0D9976
:10301000061C201C0FF00EF904990EF099FD05997D
:10302000051C081C0FF006F9391C041C381C0FF095
:1030300001F9011C201C0EF08BFD311C041C301CFE
:103040000FF0F8F8011C201C0EF082FD291C041C56
:10305000281C0FF0EFF8011C201C0EF079FDFFF783
:1030600061FD041C011C05980FF0E4F8039B211C72
:103070005860381C0FF0DEF8039B211C9860301C50
:103080000FF0D8F8039B211CD860281C0FF0D2F851
:103090000022039B18610533DA7719B0F0BDC046F2
:1030A000F8B586680400C568311C301C0FF0C2F802
:1030B000011CFC2080050FF0EFF9291C071C281CBF
:1030C0000FF0B8F8011C381C0FF0E6F96168071C16
:1030D000301C0FF0AFF82169061C281C0FF0AAF86D
:1030E000011C301C0EF034FD391C09F087FD2169EC
:1030F000A061A0680FF09EF8E168051C60680FF001
:1031000099F8011C281C0FF0C7F9C02109060FF01F
:1031100091F809F021FDE668E061311C301C0FF0E8
:1031200089F8011CFC2080050FF0B6F92569071C01
:10313000291C281C0FF07EF8011C381C0FF0ACF97C
:10314000A168071C301C0FF075F86168061C281C6C
:103150000FF070F8011C301C0EF0FAFC391C09F05D
:103160004DFD012320620534E377F8BD1FB5099CAE
:103170004461089C0294079C0194069C0094FFF70C
:10318000FDFC1FBD10B5040000F05EF98D239B000F
:10319000E018FFF7A5FA9D2300229B000120E254CE
:1031A00010BDF0B59C25040089B00CF0B1FEAD0057
:1031B0006359C01A01283CD90CF0AAFE6359C31AFE
:1031C00004930CF0A5FE8D239B006051E5182800A8
:1031D000FFF762FB05902800FFF767FB06902800C9
:1031E000FFF76CFB07902800FFF7D4FB99239B00A7
:1031F000E1580FF051F9061C2800FFF7D4FB9A2381
:103200009B00E1580FF048F9071C2800FFF7D4FB9A
:103210006B461B8A03939B239B00E1580FF03CF9FC
:10322000019702900096079B069A0599200000F0EE
:1032300043F909B0F0BD000037B5134C182317222D
:103240001249200008F0E8FF00256B230095019348
:103250002100533B17220E48FFF72CFA9922002336
:103260009200A3500432A3500432A3509C23094877
:103270009B00E550FFF744FCAA239B00E5540C3368
:10328000E5540C33E55437BD44030020C020002032
:1032900078050020BC050020F0B59D2385B0039083
:1032A0000020254A9B00D45C844239D1234E244916
:1032B00030000AF093FF30000BF08FFB14258D22B5
:1032C000039B92009818FFF7F9FA071C11F006F912
:1032D0000B0002210200009130000BF0A8F8300032
:1032E0000BF07BFBFC21381C89050EF0DBFA002873
:1032F00002D00134E4B206E0BF21381C09060EF00A
:10330000BDFA0028F5D1013D002DD8D1092C09D9ED
:103310000C4930000AF062FF30000BF05EFB280021
:1033200005B0F0BD084930000AF058FF30000BF03E
:1033300054FB0120F4E7C04644030020D0200020C5
:10334000A7820100B8820100CF820100F0B599B0D8
:103350000400FFF7A1FF00286AD00CF0D9FD00257A
:103360000023079006932E1C2F1C0CF0D1FDFA228F
:10337000079BD2009B1898421FD28D239B00E31815
:1033800018000593FFF706FB011C381C0EF0E0FB4C
:10339000071C0598FFF707FB011C301C0EF0D8FB3B
:1033A000061C0598FFF708FB011C281C0EF0D0FB3B
:1033B000069B051C01330693D7E706980FF066FAC3
:1033C000011C0590381C0EF05DFD99239B00E05018
:1033D0000599071C301C0EF055FD9A239B00E05008
:1033E0000599061C281C0EF04DFD9B239B00E05008
:1033F0000590381C11F072F8040005980D0011F0CA
:103400006DF802900391301C11F068F822000090D2
:1034100001912B00094908A811F040FF084C08A9A8
:1034200020000AF0DBFE20000BF0D7FA19B0F0BD47
:10343000044903480AF0D2FEF8E7C046648201005E
:10344000D020002082820100A323064A9B00C250A4
:10345000A822054B920083500C3283500C328350CB
:103460007047C0466F12033BCDCC4C3DF8B5037A94
:1034700004000D1C002B04D101330372281C65606D
:10348000F8BD80231B06D01821680EF0FBFC09F064
:103490004FF96168061C0EF0CDFE071CFE20311CA2
:1034A00080050EF0F9FF291C0EF0C4FE011C381C2B
:1034B0000EF04EFB051CE1E7F0B587B005930FABAE
:1034C000040018880F1C04920FF02AFA2C490EF001
:1034D000D9FC9E239B00E518059B03900293049B57
:1034E00000970193061C0E9B0D9A0C992800FFF77C
:1034F0003DFEA8239B00E3180493224BE718FB7FB3
:10350000002B02D12800FFF7CBFD1F49A8690EF060
:1035100091FE321C011C0498FFF7A8FF96239B0024
:10352000E0505433E3180493FB7F002B02D12800B2
:10353000FFF7B6FD1449E8690EF07CFE321C011C51
:103540000498FFF793FF97239B00E0505C33E31848
:103550000493FB7F002B02D12800FFF7A1FD286A0E
:1035600009490EF067FE09490EF0F2FA321C011CFF
:103570000498FFF77BFF98239B00E05007B0F0BD55
:1035800000007A447D020000E12E654200003443D1
:1035900010B5040001227821FEF715FF200001225A
:1035A0003C307821FEF70FFF20000122783078218F
:1035B000FEF709FF022110200DF0A6FA02211420C7
:1035C0000DF0A2FA002110200DF000FB00211420C4
:1035D0000DF0FCFA022116200DF096FA00211620BB
:1035E0000DF060F910BD0000F7B507001E200DF0CA
:1035F000E1F8694B984207D9C8200CF0BFFC674935
:1036000067480AF0EBFDF1E71E200DF0D3F8654B9B
:10361000984207D8C8200CF0B1FC634960480AF012
:10362000DDFDF1E7012110200DF06EFA01211420DB
:103630000DF06AFABA239B00FB18180000930524CA
:10364000FFF74EF800261A200DF0B4F80FF068F9D5
:10365000011C301C0EF07CFA013C061C002CF2D13F
:10366000C3239B00F95C16200DF01CF9AF2000016C
:103670000CF084FC002505341A200DF09BF80FF0A7
:103680004FF9011C281C0EF063FA013C051C002CAC
:10369000F2D1210016200DF005F90098FFF722F96C
:1036A0004249041C301C0EF0EDFB4049061C281C4E
:1036B0000EF0E8FB011C301C0EF0F4F8384D002829
:1036C00054D03B49201C0EF0F7F800284ED0394961
:1036D000201C0EF0DDF8002848D01024364E2800BB
:1036E00031000AF07BFDB42138004900FEF751FE9D
:1036F0003B00B4213C33180049000093FEF749FE1B
:10370000200001210DF062FA3B00B421783318004B
:1037100049000193FEF73DFE002120000DF056FA0E
:1037200026480CF02BFC310028000AF057FD2348F6
:103730000CF024FC38002249FEF72BFE00982049AB
:10374000FEF727FE200001210DF040FA01981C49E8
:10375000FEF71FFE200000210DF038FA310028008E
:103760000AF03CFD15480CF009FCB7E71049201C95
:103770000EF0A2F8002806D00E49201C0EF088F8A2
:103780001049002800D1104928000AF027FD6420C4
:103790000CF0F4FBEAE7C04651030000E2820100AE
:1037A000D020002052030000EB8201000000A04066
:1037B0000000704100003442F8820100140500004E
:1037C00098FEFFFFFF820100FB82010010B504009C
:1037D000FFF7DEFE2000FFF707FF000010B50648E8
:1037E00008F028FB054808F025FB0A21022008F014
:1037F000EEFB08F06DFB10BD5C960100ED89010049
:1038000070B5456804000021281C0EF031F800282E
:1038100013D1207C0FF084F808490EF00BFD291C11
:103820000EF030FBA061607C0FF07AF803490EF0D7
:1038300001FD291C0EF026FBE06170BD0000204157
:10384000164B010010B5186811F048FD0300421E28
:103850009041C0B2002B1FD05A781100303909298D
:1038600006D92E2A06D19A780021303A092A11D891
:10387000591C0FE0FD242B3A002122420AD19A78EC
:103880001400303C092CF3D92E2A03D1DA78303ACF
:10389000092AEDD9024B196010BDC046DC0C00208E
:1038A000E40C00200F4B70B51D685821280011F062
:1038B00015FD0124002812D15921280011F00EFD18
:1038C00000280CD15A21280011F008FD002806D14B
:1038D0004521280011F002FD441EA041C4B2200081
:1038E00070BDC046DC0C002010B5FFF7A9FF002812
:1038F00004D0034B1868431E9841C0B210BDC046A7
:10390000E40C00200E4B70B51868002815D0040098
:1039100020222578290091430CD0452D01D0652D1A
:1039200006D100212170186812F090FB257070BD3F
:103930000134EEE712F08AFBF9E70020F7E7C04612
:10394000E40C00200021054B10B51868884203D014
:103950000A2212F04DFC0100080010BDE40C00200A
:103960000021054B10B51868884203D00A2212F0D6
:10397000D7FC0100080010BDE40C002010B5FFF7D3
:10398000C1FF03490EF056FC0DF0EAFF10BDC04622
:1039900000007A4410B5FFF7D5FF0023984207DBFB
:1039A000FFF7D0FFFF23984202DCFFF7CBFFC3B243
:1039B000180010BD054B10B51B680120002B04D06A
:1039C000FFF7E8FF431E9841C0B210BDE40C002091
:1039D00010B50C1CFFF788FF002802D0FFF792FFFC
:1039E000041C201C10BD70B504000D00FFF77CFF07
:1039F000002802D0FFF7DEFF70BD2000FFF720FF98
:103A00000028F9D12800F7E710B50C00FFF76CFF8C
:103A1000002802D0FFF796FF04B2200010BD00007E
:103A2000F0B5076887B00C0038002C490DF060FD38
:103A30006E2185B2FF3128000DF05AFD6E2183B250
:103A4000FF31280005930DF0D9FD8BB2E12138003C
:103A5000090104930DF04CFD18210DF0CFFD380045
:103A60000E003C210DF044FD3C210DF0C7FD380057
:103A70000D003C210DF0C2FD059A0B00002A09D073
:103A8000029101950096049B1549200011F006FC57
:103A900007B0F0BD049A002A07D0019100953300C9
:103AA0001049200011F0FAFBF2E7002E07D0009138
:103AB0002B0032000C49200011F0F0FBE8E7002D4C
:103AC00005D02A000949200011F0E8FBE0E70A00D0
:103AD0002000074911F0E2FBDAE7C04680510100FF
:103AE000AE8C0100B28C0100B68C0100BA8C0100D2
:103AF000BE8C0100104B70B51B78DA0710D458202B
:103B0000FFF79EFE04005920FFF79AFE05005A2099
:103B1000FFF796FE29000200200004F08DF870BD2A
:103B20009A07ECD55B07EAD500214F20FFF75BFF32
:103B30000028E4D0F3E7C046250E002010B5582039
:103B4000FFF77EFE00280DD0264B274C1B78DB4369
:103B50009B0732D1FFF72EFF01232288002830D0A7
:103B6000134323805920FFF76BFE00280ED00C2250
:103B70001C4B1D4C1B781340934225D1FFF71AFFB5
:103B800002232288002823D0134323805A20FFF7E2
:103B900057FE00280ED03022124B134C1B781340D6
:103BA000934218D1FFF706FF04232288002816D07D
:103BB0001343238003F022FB10BDFFF7FBFE10230D
:103BC000CBE79A432280CDE7FFF7F4FE2023D8E726
:103BD0009A432280DAE7FFF7EDFE4023E5E79A43B8
:103BE0002280E7E7240E0020EA0C002010B55820C0
:103BF000FFF726FE00280DD0274B284C1B78DB430F
:103C00009B0734D1FFF7D6FE01232288002832D04B
:103C1000134323805920FFF713FE00280ED00C22F7
:103C20001D4B1E4C1B781340934227D1FFF7C2FE59
:103C300002232288002825D0134323805A20FFF72F
:103C4000FFFD00280ED03022134B144C1B7813407C
:103C500093421AD1FFF7AEFE04232288002818D021
:103C60001343238003F0C9FA03F0C8FA10BDFFF72D
:103C7000A1FE1023C9E79A432280CBE7FFF79AFE03
:103C80002023D6E79A432280D8E7FFF793FE40230C
:103C9000E3E79A432280E5E7240E0020EC0C0020A5
:103CA00010B55320FFF720FE002804D0FFF766FE72
:103CB000144B586010BDFFF7F5FD002802D105F048
:103CC00059F8F7E705F03CF85820FFF7B9FD002850
:103CD00001D006F0A9FB5920FFF7B2FD002801D062
:103CE00006F0C0FB5A20FFF7ABFD002801D006F01C
:103CF000E3FB4520FFF7A4FD0028DBD006F028FCFD
:103D0000D8E7C0469418002070B55320FFF7ECFDAB
:103D1000002818D0FFF73EFE05005020FFF7E4FD15
:103D2000002810D003F0D4F80400431C0BD006F098
:103D30005BF9002808D00E4808F07CF80D4808F020
:103D400079F808F0C5F870BD1A2C04D1084808F0BD
:103D500071F80948F3E7200002210CF0D5FE290094
:103D600020000CF033FF290020000CF09BFDEAE757
:103D70005C960100508A01005E8A0100F8B553206C
:103D8000FFF75EFD2D4C002809D0FFF713FE01233D
:103D90000422034020789B00904318432070284859
:103DA00008F048F8217827484907C90F08F06CF84F
:103DB00008F08EF8244808F03DF8244F380008F049
:103DC00039F8234C206810F089FB022208F066F9CC
:103DD000204E300008F02EF8606810F07FFB0222C1
:103DE00008F05CF91C4D280008F024F8A06810F0D9
:103DF00075FB022208F052F9184808F01BF8380049
:103E000008F018F8164C206810F068FB022208F041
:103E100045F9300008F00EF8606810F05FFB0222F0
:103E200008F03CF9280008F005F8A06810F056FBEF
:103E3000022208F033F908F04BF8F8BDEE0C002030
:103E400056960100788301008883010046900100A6
:103E50001C0000208F8301009283010095830100E4
:103E600010000020F8B55020FFF73EFD00283FD09D
:103E7000FFF768FD0121040049425320FFF7C4FD0C
:103E8000431C0500022B33D8230431D466B2300022
:103E900006F0AAF800282BD104F052FF01213000CF
:103EA0000CF032FEE3B2134C6A1C14D0013D6E429A
:103EB0006E41182501275D4363570F4ADB019B18AC
:103EC00062191B685268D3403B40B34210D00020B7
:103ED00006F028F8F0E718225A43A1560748C9010E
:103EE0000918A218096A52680126D1408E43E0E7FA
:103EF000F8BDC046B896010020440041004400418E
:103F0000F8B55320FFF7F0FC0025A84207D0FFF7D3
:103F100041FD0500012802D9FFF760FCF8BD1F4EE6
:103F20002C011F4A331983CA83C3022712681D4814
:103F30001A601D4A13783B43137007F07BFF1B4840
:103F400007F078FF0A21280008F01DF8184807F04C
:103F500071FFA05910F0C2FA3A0008F09FF8341926
:103F6000144807F067FF606810F0B8FA3A0008F0EC
:103F700095F8114807F05EFFA06810F0AFFA3A001C
:103F800008F08CF80D4807F055FFE06810F0A6FA2D
:103F90003A0008F083F807F09BFFBFE7D80D002038
:103FA000F80D0020098A0100A0180020B38B010041
:103FB000188A01001D8A0100218A0100258A01005A
:103FC000334BF7B51B789B070CD55320FFF78CFCC0
:103FD0000024A04207D0FFF7DDFC0400012802D92D
:103FE000FFF7FCFBF7BD2B4807F024FF2A4807F03A
:103FF00021FF0A21200007F0C6FF284807F01AFF1A
:104000004620FFF71DFC00280DD0FFF77BFC0021A8
:104010000DF048FC002806D0FFF774FC20490DF095
:1040200031FF204B1860204B2401E318002401933A
:104030001E4BA5001F5D3800FFF702FC1C4E002838
:1040400022D0FFF75FFC019B011C58590DF080FD49
:1040500073191860174807F0EDFE0021380007F0CB
:10406000B2FF154807F0E6FE705910F037FA013438
:10407000022208F013F8042CDAD107F029FF04F02B
:104080001DFA04F05DFEADE70C4B5B597351E1E79F
:10409000A0180020298A0100B38B01003C8A01008E
:1040A0000000704228000020D80D0020D1930100AC
:1040B000B80D00209891010028890100F80D00201A
:1040C00010B55820FFF710FC5920FFF70DFC5A20BF
:1040D000FFF70AFC4520FFF707FC5820FFF7B0FB6D
:1040E0005920FFF7ADFB5A20FFF7AAFB4520FFF749
:1040F000A7FB10BD10B55820FFF7F6FB5920FFF7BE
:10410000F3FB5A20FFF7F0FB4520FFF7EDFB10BD56
:10411000F0B50024260085B000941B4B185DFFF716
:10412000E3FB051E01901ED0FFF7ECFBA3000393F9
:10413000164BA200995802900EF0AEF91449071CD4
:104140000DF0BAFB002805D01249381C0DF0A0FB79
:10415000002808D1032C01D0009501960B4B029941
:10416000A200019E99500134042CD6D1009B002B53
:1041700005D004F0BFF904F0D1F905B0F0BD002E70
:10418000F9D004F0C3F9F6E7D1930100F80D00204F
:10419000BD3786B5BD37863510B55320FFF7A4FB74
:1041A000002803D0FFF7F6FB05F02CFF5020FFF7A7
:1041B0009BFB00280AD0FFF7C5FB02B2064B002A82
:1041C00005DD1B781843C0B205F01CFF10BD1B783D
:1041D00001381840F8E7C0469018002010B5452077
:1041E000FFF782FB002806D0FFF7E4FB002802D08F
:1041F0000A4807F01FFE4120FFF776FB002806D093
:10420000FFF7D8FB002802D0054807F013FE054B46
:10421000186807F05FFF07F05BFE10BD56960100BF
:1042200074830100D40C0020044B50201B78012B18
:1042300003D00F38022B00D008307047001A00203E
:10424000F8B55320FFF7FCFA0026B04202D0FFF782
:10425000A1FB0600FFF7E8FF0400B84807F0EAFDFD
:10426000200007F025FEB64807F0E4FDB54B1B78AB
:10427000DA0704D59A0702D5B3485B0700D4B348E0
:1042800007F0D8FDB24807F0D5FDB24DE86810F050
:1042900025F9022207F002FFAF4807F0CBFD28689E
:1042A00010F01CF9022207F0F9FEAC4C200007F0D8
:1042B000C1FD686810F012F9022207F0EFFE20003D
:1042C00007F0B8FDA86810F009F9022207F0E6FE31
:1042D000A34807F0AFFDA34B0A21187807F053FE5F
:1042E000A14807F0A7FDA14807F0A4FDA04B0A21B3
:1042F0000020185E07F06BFE9E4807F09BFD9E4B6A
:104300000A210020185E07F062FE9C4807F092FD2B
:1043100007F0DEFD9A4807F08DFD9A4807F08AFD08
:10432000994FF86D10F0DAF8012207F0B7FE563712
:10433000964807F07FFD0023F85E0A2107F047FE4C
:10434000934807F077FD32200022BB5E834200DCF9
:10435000013807F0ADFD8F4807F06CFD0BF0D8FD7C
:104360000A2107F005FEB01E032827D80DF0B6F885
:10437000022C5151200007F05DFD07F0A9FD864891
:1043800007F058FD854807F055FD854807F052FDB8
:10439000844807F04FFD844807F04CFD834807F040
:1043A00049FD0A21012007F012FE814807F042FD75
:1043B000804807F03FFD804807F03CFD7D2007F076
:1043C00077FD07F085FDF8BD200007F033FD07F00D
:1043D0007FFD7A4807F02EFD01200A21404207F0B8
:1043E000F6FD774807F026FD634B0020185E0EF0BF
:1043F0004DFAE9680DF01EFF10F070F8022207F088
:104400004DFE704807F016FD6F4807F013FD6F482A
:10441000D2E7200007F00EFD07F05AFD6C4807F0C8
:1044200009FD0A216B4807F0D2FD2C2007F040FD62
:104430000A21684807F0CBFD2C2007F039FD0A213E
:10444000644807F0C4FD644807F0F4FC0A2163489F
:1044500007F0BDFD2C2007F02BFD0A215F4807F077
:10446000B6FD2C2007F024FD0A215C4807F0AFFDC3
:104470005B4807F0DFFC5B4C0A21606B07F078FDBE
:104480002C2007F015FD0A21A06B07F071FD2C20F0
:1044900007F00EFD0A21E06B07F06AFD2C2007F003
:1044A00007FD0A21206C07F063FD464807F0C2FCB7
:1044B0004D4807F0BFFC4D4807F0BCFC4C4807F0E6
:1044C000B9FC4C4807F0B6FC4B4807F0B3FC4B482E
:1044D00007F0B0FC4A4807F0ADFC4A4807F0AAFCD8
:1044E000494807F0A7FC494807F0A4FC484807F0F2
:1044F000A1FC20690FF0F2FF022207F0CFFD2C2073
:1045000007F0D6FC60690FF0E9FF022207F0C6FD54
:104510002C2007F0CDFCA0690FF0E0FF022207F08D
:10452000BDFD2C2007F0C4FCE0690FF0D7FF02228C
:1045300007F0B4FD5D2007F0BBFC3FE77C84010081
:1045400088840100250E0020A3840100AB840100B3
:10455000B3840100F80D0020BE840100D88501005D
:10456000C88401009C190020DA840100F384010052
:104570002C000020048501004A0000201585010060
:104580001985010024850100F80C00203A850100FE
:1045900047850100538501005F8501009685010074
:1045A000A0850100AB850100B3850100BF85010036
:1045B000CA850100DA850100E7850100E98501006F
:1045C00001860100D78501000E860100B18401003B
:1045D0002286010084EAFFFF2F8601007C1500007F
:1045E0003F860100600D00205B860100738601009C
:1045F000778601008A8601009186010008930100F8
:10460000A6860100B9860100CE860100E38601007E
:10461000E686010070B54C20FFF766F9002398424A
:1046200002D0FFF78FF90300134D53202B60FFF7E3
:1046300007F9124C002819D0FFF7BCF9002815D053
:1046400005F0BAFA0E4807F0F5FB2B68002B06DDE3
:104650000C4807F0EFFB0A21286807F0A4FC07F0DC
:1046600037FC022263789343637070BD05F0BCFA97
:10467000054807F0DFFBF2E73C000020A01800200F
:10468000F9860100088701001587010010B5502048
:10469000FFF72AF90024A04202D0FFF761F90400D5
:1046A0005320FFF721F9002802D0FFF767F9040033
:1046B00004F046FB0BF02CFC24180BF029FC001B2B
:1046C00006D5022005F038FD002005F02BFCF4E7AC
:1046D00010BD000070B53D4C58202168FFF778F9F7
:1046E000616820605920FFF773F960605A20FFF776
:1046F000A7F800280ED0FFF705F93549051C0DF085
:10470000DBF8002859D03349281C0DF0C1F80028E7
:1047100053D0A5604620A589FFF7E6F8002802D00F
:10472000FFF710F985B25320A581E589FFF7DCF882
:10473000002802D0FFF706F985B2A389E581772B1F
:1047400001D87823A3813B2D01D83C23E381224D5E
:10475000280007F06FFB214807F06CFB07F0B8FB5F
:10476000280007F067FB1E4807F064FB20680FF085
:10477000B5FE032207F092FC1A4807F05BFB606865
:104780000FF0ACFE032207F089FC174807F052FB3C
:10479000A0680FF0A3FE032207F080FC134807F087
:1047A00049FBA0890A2107F012FC114807F042FBDF
:1047B000E0890A2107F00BFC05E00E4807F03AFB00
:1047C0000D4807F037FB07F083FB70BDA0190020F0
:1047D000000048C20000484256960100DF870100F1
:1047E000DB9301001D8A0100218A01001888010065
:1047F0001C8801005C960100C487010070B590B070
:1048000004F09EFA0BF084FBF530FF3004000BF04F
:104810007FFB001B06D5022005F08EFC002005F072
:1048200081FBF4E79D261C4CB600A35D002B13D042
:104830001A4807F0FFFA1A4807F0FCFAA05D30307A
:10484000C0B207F035FB07F043FB164807F0F2FA59
:1048500007F03EFB10B070BD97239B00E6580A247A
:10486000281C311C0DF074F9013C051C002CF7D1FB
:104870000D490DF007FB0FF031FE02000B006846FA
:104880000A4910F00BFD074807F0D4FA202007F082
:104890000FFB6846DAE7C046440300205C9601003F
:1048A000A58701006396010000002041BD8701003B
:1048B00010B504000B4807F0BDFA0B4807F0BAFA30
:1048C0000A4B9C4206D00A4807F0B4FA0A2120009D
:1048D00007F07DFB07F0FCFA0649074809F07EFC6B
:1048E00010BDC04656960100A4880100FFFF0000DD
:1048F000C8880100CF880100D0200020F7B52D4ED8
:104900002D4C736A2D4A01932D4B2E4D73622E4B05
:104910002E491A602368A0682B6063686B600DF0F5
:1049200017F9A86003F0CAFD294B2A4F1A783B7883
:104930009A422AD1284B1B78002B26D12749A06800
:104940000DF0AAFDA86003F0B9FD214B1A783B7861
:104950009A4221D1204B1B78002B1DD12049A06801
:104960000DF0F6F8A86003F0A9FD194B1A783B7812
:104970009A4218D1184B1B78002B14D10023A36046
:1049800003F0B8FD019B7362F7BD022005F0D4FB74
:10499000002005F0C7FAC7E7022005F0CDFB002094
:1049A00005F0C0FAD1E7022005F0C6FB002005F0B3
:1049B000B9FADAE7600D0020F80D0020000020426F
:1049C00000007A44B80D00202800002000006C424E
:1049D0003D1800203E1800204118002000008C42A5
:1049E0000000B043F0B53C4C89B005903B4B2068CB
:1049F00006910792984233D880000BF01BFB0025EC
:104A00002368374C0190009323680493009BAB42CA
:104A100029DD059BAF00DB5901350293069B029906
:104A2000DE59079B081CDB5903930DF003FC311C76
:104A30000290301C0DF0FEFB011C02980DF088F86E
:104A40000399061C081C0DF0F5FB011C301C0DF031
:104A50007FF8019B0499D8510DF07AF82060D3E7D4
:104A600001204042C9E700980DF010FF011C049896
:104A70000DF008FA1B4B32271E6800232060019CB2
:104A80000293C834009BBB421DDD33250020013D4D
:104A9000002D05D0AB005B42E1580DF059F8F6E768
:104AA00011490DF0EFF9051C011C301C0CF0E6FE5D
:104AB000002802D001232E1C02932300C83B1D6056
:104AC00001370434DEE7029B002B01D0054B1E604A
:104AD000019809B0F0BDC046A40C0020FEFFFF1FE6
:104AE0009C0C0020A00C00200000484210B50A4B8E
:104AF0001A7861235343094A9B1860331B785BB2D1
:104B0000002B08DB064C0748237007F093F907F0E9
:104B1000DFF9FF23237010BD0A0600200E060020D7
:104B2000540000206396010010B507F05DF90748B6
:104B300007F080F9064B0A211868013007F033FAB4
:104B400007F0C6F9FFF7D2FF10BDC0467896010006
:104B5000200C0020F0B503789DB00D0000263B2B03
:104B60001DD0114CE378A77801939F4217D2010022
:104B700003A810F0CBFB612210001BAB1D70657801
:104B800003A96843201804300FF00BFE0135019B88
:104B90000137EDB2A770AB4204D06570012630003A
:104BA0001DB0F0BD6670F9E70A06002070B500245C
:104BB0002E4BA600185DFEF743FE2D4D002850D069
:104BC000FEF7A0FE2B4B1B5D002B03D12A4B1B785D
:104BD0005B0703D5294B99590CF0BAFFA851013452
:104BE000042CE5D100214620FEF7F2FE00210CF056
:104BF00059FE002806D0FEF785FE21490DF042F946
:104C0000204B18605020FEF71BFE002814D0FEF742
:104C100079FE1D4B1D4A1B78041C5B00985E0DF04D
:104C200035FE211C0DF006FB19490DF02BF9134B35
:104C3000D9680CF08DFFE860164B1B781A070FD46B
:104C4000DB090DD10D4B144CD968E8680DF024FC3C
:104C50000FF044FC226963690DF0A2FE20616161DE
:104C600070BD064B9B59AB51B9E7C046D1930100CB
:104C7000B80D0020A3180020A0180020F80D002077
:104C800000007042280000209E1900204C000020E7
:104C90000000C8429018002070180020F0B56B4B3F
:104CA0008BB01B780690DB0700D4B1E00024FFF73F
:104CB0007DFF522008940994FEF716FE002800D1CB
:104CC000AAE0FEF71FFE211C051C0CF0D1FD0028F8
:104CD00000D088E05E4B1A685F685E4B01921A68EC
:104CE0005B68111C0198029203930CF0C1FD00282F
:104CF00005D00399381C0CF0BBFD002873D10021AE
:104D0000281C01240CF0BAFD002800D1041C069BCD
:104D1000E4B29C4200D07DE0FE239B0501990298FD
:104D200005930DF0B9FB391C049003980DF0B4FB0A
:104D30000499041C081C0DF07DFA211C061C201C83
:104D40000DF078FA011C301C0CF002FF07F05AFF3E
:104D5000FC218905061C0DF06DFA291C0790281C02
:104D60000DF068FA0799051C081C0DF063FA011C88
:104D7000281C0DF091FB07F045FF05990DF05AFA3C
:104D800080231B06051C311CE0180DF07BF8291C44
:104D90000DF050FA0299041C01980CF0D9FEFC2188
:104DA00089050DF047FA011C201C0CF0D1FE019979
:104DB0000DF072FB03990890381C0CF0C9FEFC2121
:104DC00089050DF037FA311C041C04980DF05AF8CF
:104DD000291C0DF02FFA011C201C0CF0B9FE391C07
:104DE0000DF05AFB0990002108980CF041FD0028B5
:104DF00005D0002109980CF03BFD00281CD1069A33
:104E000008A9144803F016F80BF082F8124B18604A
:104E10000BB0F0BD114B81E74920FEF765FD00287E
:104E200002D0FEF76FFD08904A20FEF75DFD0028D6
:104E3000D9D0FEF767FDD5E7094806F0FBFF094822
:104E400006F0F8FF07F044F8E2E7C046A01800209B
:104E5000F80D0020B80D002094180020000080BF3D
:104E60005C9601002088010070B506005420FEF712
:104E70003BFD041E1DD0FEF78DFD45B2002D14DD57
:104E80000E4806F0D7FF0E4806F0D4FF0A21300086
:104E900007F09DF80B4806F0CDFF0A21280007F027
:104EA00096F807F015F8200070BD074B0024187025
:104EB000F9E7064B1A78044B1A70F4E7569601008E
:104EC0006F8C0100718C01009D1900209C1900203D
:104ED000F8B55C20FFF7C8FF00282ED104001A4B5C
:104EE000671C185DFEF7ACFC002829D0FEF70AFD10
:104EF000164D061C032C21D115490CF0BFFC0028CF
:104F000018D0311CE8680CF0BDFF041C011C686D52
:104F10000DF090F9211C6865E8690DF08BF90D4FD3
:104F2000E861F8680DF0FCFC211C0DF083F90CF031
:104F300017FDF860EE6004F01BFDF8BDA4002851D9
:104F40003C00042FCBD1F6E7D1930100600D002087
:104F50000000A041140E002010B56820FFF784FF68
:104F6000002814D10A4B1B781A0710D4DB090ED184
:104F70005330FEF7B9FC002807D0FEF7C3FC0DF054
:104F800065FC01B2034802F005FB04F015FD10BDFD
:104F900090180020F80C002010B5CC20FFF764FF1B
:104FA000002850D15330FEF74BFC00280FD0FEF7FD
:104FB000A9FC254C20626062244806F03BFF206A71
:104FC0000FF08CFA022207F069F806F081FF5020FA
:104FD000FEF736FC00280ED0FEF794FC1A4C206237
:104FE0001B4806F027FF206A0FF078FA022207F02C
:104FF00055F806F06DFF5220FEF722FC00280ED077
:10500000FEF780FC104CA062124806F013FFA06A65
:105010000FF064FA022207F041F806F059FF56201B
:10502000FEF70EFC00280ED0FEF76CFC064C60620A
:10503000094806F0FFFE606A0FF050FA022207F0FE
:105040002DF806F045FF10BD600D00209C83010087
:10505000C9830100EB8301000F84010010B5CD204E
:10506000FFF702FF00282AD14230FEF7E9FB0028B3
:1050700003D0FEF775FC124B58645320FEF7E0FB9B
:10508000002803D0FEF73EFC0D4BD8625620FEF7F9
:10509000D7FB002803D0FEF735FC094B186300242A
:1050A000084B185DFEF7CCFB002805D0FEF72AFC64
:1050B000034AA3009B1898640134042CF0D110BD5E
:1050C000600D0020D193010010B5DD20FFF7CCFE6C
:1050D000002813D15330FEF707FC144C00280ED0E3
:1050E000FEF730FC00B220800FF08CF9104B114A13
:1050F0000EF07CFB0FF044FA0F4B186010BD0F4808
:1051000006F098FE0E4806F095FE302006F0D0FE20
:105110000C4806F08FFE0023E05E0A2106F057FFE0
:10512000252006F0C5FE06F0D3FEE7E74A00002082
:10513000E17A843F7B14AE47500000205696010070
:10514000FB8C010032840100F8B54248FFF78CFE69
:1051500000287AD1040001253F4B185DFEF770FB53
:1051600000280BD0FEF726FC2B00A3403B4A1BB2C5
:105170001188002800D169E00B4313800134042C0E
:10518000EAD105F035FE4420FEF75AFB344F0028E3
:1051900002D0FEF7E5FB38605020FEF751FB314EA0
:1051A000002802D0FEF7F6FB30705220FEF748FBD5
:1051B0002D4D002802D0FEF7D3FB286006F066FDD7
:1051C0002A4806F037FE06F083FE294806F032FE34
:1051D000224C28482388DB0700D5274806F07AFFB1
:1051E000264806F027FE238822489B0700D5224840
:1051F00006F070FF224806F01DFE23881D485B075D
:1052000000D51D4806F066FF1E4806F013FE2388F1
:1052100018481B0700D5184806F05CFF1A4806F02E
:1052200009FE0A21386806F0A3FE184806F002FEBF
:105230000A21307806F0A7FE154806F0FBFD0A218A
:10524000286806F095FE06F043FEF8BD99431180EC
:1052500094E7C04639020000D19301004C190020A8
:105260005419002038190020281900202E87010029
:10527000488701002887010023870100508701002B
:105280005887010060870100688701007E87010060
:105290009287010070B5060048200D00FEF7D0FA95
:1052A000041E03D130700134200070BDFEF74AFBAC
:1052B00040B230700028F7D00748002D08D106F022
:1052C000B9FD064806F0B6FD002406F001FEEBE746
:1052D00006F0B0FD0248F5E75C960100908C0100F5
:1052E0009F8C010037B56B46DC1D00230121200097
:1052F0002370FFF7CFFF002828D05820FEF7F4FADC
:10530000002806D000256557FEF7FCFA104BAD00CB
:10531000E8505920FEF7E8FA002807D00025655725
:10532000FEF7F0FA01350A4BAD00E8505A20FEF7BF
:10533000DBFA002807D000256557FEF7E3FA0235AF
:10534000034BAD00E850207806F04EFA37BDC0465A
:105350009019002073B54820FEF772FA0023984296
:1053600002D0FEF7EFFA43B26A46D51D00212800AD
:105370002B70FFF78FFF00283DD05020FEF760FA1A
:105380001D4C002807D00026AE57FEF7BBFA682355
:105390007343E31898604920FEF752FA002807D0BB
:1053A0000026AE57FEF7AEFA68237343E318D860C1
:1053B0004420FEF745FA002807D00026AE57FEF736
:1053C000A1FA68237343E318186100206826285661
:1053D000704308302018FEF713FA00202856704357
:1053E000201802F0DFFA0023EB565E430423A419D1
:1053F000A2781343A37073BDF80C0020F0B5002110
:1054000087B048200F24FEF7FFFA02ABE4182070A3
:1054100005214320FEF7F8FA002107005220FEF78D
:10542000F3FA002106005520FEF7DDFA23780390F9
:105430007F2B5ED832495320FEF7CAFA0021051CA3
:105440002000FFF727FF002851D02E4806F0F2FC7D
:1054500006F03EFD00226823A25653432A4A9B5C75
:10546000002B07D1294806F0E5FC00200A21205630
:1054700006F0ADFD281C0DF0E9F93B1CFFB205B2AA
:10548000142F38D91423DFB2331CF6B2042E00D9FE
:1054900004231F48DEB206F0CDFC0A21280006F0E6
:1054A00096FD1C4806F0C6FC0A21380006F06BFD8C
:1054B000194806F0BFFC0A21300006F064FD039B8A
:1054C000002B02D0154806F0B5FC06F001FD2800BF
:1054D0000DF0DCF90023011C6820E3563A00584324
:1054E000094B1818039B0093330005F0CFFD07B05C
:1054F000F0BD0B499FE7DAB2052AC4D20523C2E703
:10550000000048433A840100F80C00204D8401005B
:10551000558401005C840100658401006E840100F3
:1055200000008C42F0B5482085B0FEF789F90023D1
:10553000984202D0FEF706FA43B202AAD41D002117
:105540002000D371FFF7A6FE002872D00027E7578E
:1055500068247C43384E4120A419E16BFEF738FAE9
:10556000216CE0634220FEF733FA216D2064432072
:10557000FEF72EFA616C20655220FEF729FA3623D9
:10558000E15E60644C20FEF73FFA3823E15EE0867E
:105590004F20FEF739FA3223E15E20875420FEF7D0
:1055A00033FA60865020FEF74BF900280FD0002117
:1055B000200001F0EFFF01F098FC0100431C06D031
:1055C0002300002030331856197006F063F968255F
:1055D000FE207D437519296C80050CF053FCE864AE
:1055E000E86B07F0ABF9E96C061C0CF023FE0EF03B
:1055F00075FF02000B00114811490EF069FB009085
:105600000191296D301C0CF015FE311C0CF012FEBE
:10561000311C0CF00FFE0EF061FF02000B00009831
:1056200001990EF055FB0EF0ABFFA864200002F0CC
:10563000C5F805B0F0BDC046F80C002083DBB5DC32
:10564000E1796B3FF7B54820FEF7FAF8002398425E
:1056500002D0FEF777F943B26A46D41D002120003C
:10566000D371FFF717FE002858D000276826E757A8
:105670002B4D7E437419217E4120FEF7C5F9617ED2
:1056800020764220FEF7C0F9A17E60764320FEF727
:10569000BBF90423E15EA0764C20FEF7B5F90623A2
:1056A000E15EA0804F20FEF7AFF9E0805520FEF7C5
:1056B000C7F8002809D0FEF77DF901230222034034
:1056C000A0785B0090431843A0704920FEF7B8F81B
:1056D00000280CD0FEF76EF96823012208217B43D5
:1056E000EB1802409878D2008843104398705020FD
:1056F000FEF7A6F8002809D00021200001F04AFF9B
:1057000001F0E6FB68235F43EF1978703000083042
:105710002818FEF775F8200002F0CEF8F7BDC04655
:10572000F80C002010B5094806F084FB084806F084
:1057300081FB084B186806F0CDFC222006F0B8FB70
:1057400006F0C6FBFF22044B1A7010BD56960100EE
:105750008A8B0100D80C00205400002070B5060090
:105760000C4D0D4829700C0006F064FB300006F06B
:1057700061FB0A4B0A21186806F015FC06F0A8FB2D
:10578000FFF7D2F90022064BA400E250FF232B7052
:1057900070BDC046540000205C960100200C002023
:1057A000240C0020F7B57C4B7B4A9B78D2789A4238
:1057B00003D8022004F0C0FCF7BD002B19D106F07D
:1057C0002FFB002815D10AF0A3FB744C2368002B93
:1057D00005D062689A18824201D9834209D9002310
:1057E0006F48236006F026FB06F072FB0AF090FB80
:1057F0002060694B9A78DB789A42DDD206F010FB84
:105800000028D9D00AF084FB644B18600AF080FBB2
:10581000644B1860002006F0F7FA0028E9DB624CC0
:10582000C0B222680A2802D00D2800D090E00023E0
:105830005E490B709A4202D104F0D8FAD9E75C496C
:1058400023600C008B542678202E01D10134FAE716
:105850004E2E44D1574920000FF09FFD0500200037
:10586000002D06D0201D31000FF038FD002800D19A
:10587000200001300A22002110F0BAFC4E4E4F4F9A
:10588000336838600133984206D0002D04D12900D6
:105890004B48FFF763FF8FE72A2120000FF06AFDD6
:1058A000002817D00023051BEDB20193002D06D070
:1058B000013DEDB2019A635D5A400192F6E7013075
:1058C0000A22290010F094FC019B984205D029007F
:1058D0003C48DEE701003C48DBE73B6833603B4E79
:1058E0003578ED07ED0F14D1472120000FF042FD70
:1058F00000280ED001300A22290010F079FC03287C
:1059000007D8334806F096FA324806F093FA06F0C4
:10591000DFFA314920000FF0EFFC002803D12022EC
:105920003378934333702D4920000FF0E5FC0028B5
:1059300001D104F039FA2A4920000FF0DDFC0028DB
:1059400001D104F008FA00211948FFF703F950E7E4
:105950005E2A00DD4DE75C2810D1002006F054FAE5
:10596000002800DA45E7114B1B78002B00D040E7F8
:1059700023685A1C22600E4A98543AE70B4B3B2886
:1059800001D1012119701B78002B00D031E7531C85
:105990002360074BF0E7C0460A060020280C0020D1
:1059A00086960100B0180020240C0020980C0020DE
:1059B000380C0020848A0100200C0020340C0020C8
:1059C000898A0100BC8A0100DB8A0100A01800203E
:1059D0005C960100058B01007B8B0100808B010030
:1059E000858B010070B5027805000D2A05D80124C9
:1059F0000D4BD34022009A4314D002212800494283
:105A0000FFF7A8F8041E0DD0084806F013FA08485E
:105A100006F010FA280006F05DFB222006F048FA96
:105A200006F056FA200070BD0124000056960100D1
:105A3000838C0100F0B5144E89B0316800291CD068
:105A40001D2268460FF082FC00246B465C776B4693
:105A50001F5D002F03D00A2F01D00134F7E7002586
:105A60006B4668461D55FFF7BDFFA84205D0AF4203
:105A700002D03368651C5D1935603068431E98415B
:105A8000C0B209B0F0BDC046300C002010B5064BC6
:105A90009A78DB789A4205D2FFF7CCFF002801D133
:105AA000FFF780FE10BDC0460A06002010B5024B6D
:105AB0001860FFF7BFFF10BD300C0020C22110B5E9
:105AC0000022FF240B4BC9001000613264301C54CB
:105AD0008A42F9D11022DA7000225A701A709A7034
:105AE000FA23054C9B00226063600AF011FA2060E3
:105AF00010BDC0460A060020280C0020F0B5A24DBB
:105B00008FB0A868A1490CF023F8A14C0DA90C9006
:105B10000CA80D9402F046F89E4E0220736A0027EE
:105B20000A9304F037FC9C4B0B9073629B4E2B68DE
:105B3000A86833606B689A4973600CF009F8002517
:105B4000B0600026974B1C6002F0B8FC964A974B59
:105B50001570039305950994954B1A78954B1B780E
